{
  "contractName": "Lottery",
  "abi": [
    {
      "inputs": [],
      "stateMutability": "nonpayable",
      "type": "constructor"
    },
    {
      "inputs": [],
      "name": "lotteryId",
      "outputs": [
        {
          "internalType": "uint256",
          "name": "",
          "type": "uint256"
        }
      ],
      "stateMutability": "view",
      "type": "function",
      "constant": true
    },
    {
      "inputs": [],
      "name": "owner",
      "outputs": [
        {
          "internalType": "address",
          "name": "",
          "type": "address"
        }
      ],
      "stateMutability": "view",
      "type": "function",
      "constant": true
    },
    {
      "inputs": [
        {
          "internalType": "uint256",
          "name": "",
          "type": "uint256"
        }
      ],
      "name": "players",
      "outputs": [
        {
          "internalType": "address payable",
          "name": "",
          "type": "address"
        }
      ],
      "stateMutability": "view",
      "type": "function",
      "constant": true
    },
    {
      "inputs": [
        {
          "internalType": "uint256",
          "name": "",
          "type": "uint256"
        }
      ],
      "name": "winners",
      "outputs": [
        {
          "internalType": "address",
          "name": "",
          "type": "address"
        }
      ],
      "stateMutability": "view",
      "type": "function",
      "constant": true
    },
    {
      "inputs": [],
      "name": "enter",
      "outputs": [],
      "stateMutability": "payable",
      "type": "function",
      "payable": true
    },
    {
      "inputs": [],
      "name": "getBalance",
      "outputs": [
        {
          "internalType": "uint256",
          "name": "",
          "type": "uint256"
        }
      ],
      "stateMutability": "view",
      "type": "function",
      "constant": true
    },
    {
      "inputs": [],
      "name": "getPlayers",
      "outputs": [
        {
          "internalType": "address payable[]",
          "name": "",
          "type": "address[]"
        }
      ],
      "stateMutability": "view",
      "type": "function",
      "constant": true
    },
    {
      "inputs": [],
      "name": "getWinner",
      "outputs": [
        {
          "internalType": "address[]",
          "name": "",
          "type": "address[]"
        }
      ],
      "stateMutability": "view",
      "type": "function",
      "constant": true
    },
    {
      "inputs": [],
      "name": "getlotteryId",
      "outputs": [
        {
          "internalType": "uint256",
          "name": "",
          "type": "uint256"
        }
      ],
      "stateMutability": "view",
      "type": "function",
      "constant": true
    },
    {
      "inputs": [],
      "name": "getRandomNumber",
      "outputs": [
        {
          "internalType": "uint256",
          "name": "",
          "type": "uint256"
        }
      ],
      "stateMutability": "view",
      "type": "function",
      "constant": true
    },
    {
      "inputs": [],
      "name": "pickWinner",
      "outputs": [],
      "stateMutability": "nonpayable",
      "type": "function"
    }
  ],
  "bytecode": "0x608060405234801561001057600080fd5b50336000806101000a81548173ffffffffffffffffffffffffffffffffffffffff021916908373ffffffffffffffffffffffffffffffffffffffff1602179055506000600381905550610cb2806100686000396000f3fe60806040526004361061009c5760003560e01c8063a2fb117511610064578063a2fb117514610164578063dbdff2c1146101a1578063ddb29cb2146101cc578063e580f47b146101f7578063e97dcb6214610222578063f71d96cb1461022c5761009c565b806312065fe0146100a15780635d495aea146100cc5780638b5b9ccc146100e35780638da5cb5b1461010e5780638e7ea5b214610139575b600080fd5b3480156100ad57600080fd5b506100b6610269565b6040516100c391906107e1565b60405180910390f35b3480156100d857600080fd5b506100e1610271565b005b3480156100ef57600080fd5b506100f8610486565b60405161010591906108ec565b60405180910390f35b34801561011a57600080fd5b50610123610514565b604051610130919061092f565b60405180910390f35b34801561014557600080fd5b5061014e610538565b60405161015b9190610a08565b60405180910390f35b34801561017057600080fd5b5061018b60048036038101906101869190610a5b565b6105c6565b604051610198919061092f565b60405180910390f35b3480156101ad57600080fd5b506101b6610605565b6040516101c391906107e1565b60405180910390f35b3480156101d857600080fd5b506101e1610659565b6040516101ee91906107e1565b60405180910390f35b34801561020357600080fd5b5061020c610663565b60405161021991906107e1565b60405180910390f35b61022a610669565b005b34801561023857600080fd5b50610253600480360381019061024e9190610a5b565b6106e2565b6040516102609190610a97565b60405180910390f35b600047905090565b60008054906101000a900473ffffffffffffffffffffffffffffffffffffffff1673ffffffffffffffffffffffffffffffffffffffff163373ffffffffffffffffffffffffffffffffffffffff16146102c957600080fd5b60006001805490506102d9610605565b6102e39190610ae1565b9050600181815481106102f9576102f8610b12565b5b9060005260206000200160009054906101000a900473ffffffffffffffffffffffffffffffffffffffff1673ffffffffffffffffffffffffffffffffffffffff166108fc479081150290604051600060405180830381858888f19350505050158015610369573d6000803e3d6000fd5b506002600182815481106103805761037f610b12565b5b9060005260206000200160009054906101000a900473ffffffffffffffffffffffffffffffffffffffff169080600181540180825580915050600190039060005260206000200160009091909190916101000a81548173ffffffffffffffffffffffffffffffffffffffff021916908373ffffffffffffffffffffffffffffffffffffffff1602179055506003600081548092919061041e90610b70565b9190505550600067ffffffffffffffff81111561043e5761043d610bb8565b5b60405190808252806020026020018201604052801561046c5781602001602082028036833780820191505090505b5060019080519060200190610482929190610721565b5050565b6060600180548060200260200160405190810160405280929190818152602001828054801561050a57602002820191906000526020600020905b8160009054906101000a900473ffffffffffffffffffffffffffffffffffffffff1673ffffffffffffffffffffffffffffffffffffffff16815260200190600101908083116104c0575b5050505050905090565b60008054906101000a900473ffffffffffffffffffffffffffffffffffffffff1681565b606060028054806020026020016040519081016040528092919081815260200182805480156105bc57602002820191906000526020600020905b8160009054906101000a900473ffffffffffffffffffffffffffffffffffffffff1673ffffffffffffffffffffffffffffffffffffffff1681526020019060010190808311610572575b5050505050905090565b600281815481106105d657600080fd5b906000526020600020016000915054906101000a900473ffffffffffffffffffffffffffffffffffffffff1681565b60008060009054906101000a900473ffffffffffffffffffffffffffffffffffffffff164260405160200161063b929190610c50565b6040516020818303038152906040528051906020012060001c905090565b6000600354905090565b60035481565b662386f26fc1000034101561067d57600080fd5b6001339080600181540180825580915050600190039060005260206000200160009091909190916101000a81548173ffffffffffffffffffffffffffffffffffffffff021916908373ffffffffffffffffffffffffffffffffffffffff160217905550565b600181815481106106f257600080fd5b906000526020600020016000915054906101000a900473ffffffffffffffffffffffffffffffffffffffff1681565b82805482825590600052602060002090810192821561079a579160200282015b828111156107995782518260006101000a81548173ffffffffffffffffffffffffffffffffffffffff021916908373ffffffffffffffffffffffffffffffffffffffff16021790555091602001919060010190610741565b5b5090506107a791906107ab565b5090565b5b808211156107c45760008160009055506001016107ac565b5090565b6000819050919050565b6107db816107c8565b82525050565b60006020820190506107f660008301846107d2565b92915050565b600081519050919050565b600082825260208201905092915050565b6000819050602082019050919050565b600073ffffffffffffffffffffffffffffffffffffffff82169050919050565b600061085382610828565b9050919050565b61086381610848565b82525050565b6000610875838361085a565b60208301905092915050565b6000602082019050919050565b6000610899826107fc565b6108a38185610807565b93506108ae83610818565b8060005b838110156108df5781516108c68882610869565b97506108d183610881565b9250506001810190506108b2565b5085935050505092915050565b60006020820190508181036000830152610906818461088e565b905092915050565b600061091982610828565b9050919050565b6109298161090e565b82525050565b60006020820190506109446000830184610920565b92915050565b600081519050919050565b600082825260208201905092915050565b6000819050602082019050919050565b61097f8161090e565b82525050565b60006109918383610976565b60208301905092915050565b6000602082019050919050565b60006109b58261094a565b6109bf8185610955565b93506109ca83610966565b8060005b838110156109fb5781516109e28882610985565b97506109ed8361099d565b9250506001810190506109ce565b5085935050505092915050565b60006020820190508181036000830152610a2281846109aa565b905092915050565b600080fd5b610a38816107c8565b8114610a4357600080fd5b50565b600081359050610a5581610a2f565b92915050565b600060208284031215610a7157610a70610a2a565b5b6000610a7f84828501610a46565b91505092915050565b610a9181610848565b82525050565b6000602082019050610aac6000830184610a88565b92915050565b7f4e487b7100000000000000000000000000000000000000000000000000000000600052601260045260246000fd5b6000610aec826107c8565b9150610af7836107c8565b925082610b0757610b06610ab2565b5b828206905092915050565b7f4e487b7100000000000000000000000000000000000000000000000000000000600052603260045260246000fd5b7f4e487b7100000000000000000000000000000000000000000000000000000000600052601160045260246000fd5b6000610b7b826107c8565b91507fffffffffffffffffffffffffffffffffffffffffffffffffffffffffffffffff8203610bad57610bac610b41565b5b600182019050919050565b7f4e487b7100000000000000000000000000000000000000000000000000000000600052604160045260246000fd5b60008160601b9050919050565b6000610bff82610be7565b9050919050565b6000610c1182610bf4565b9050919050565b610c29610c248261090e565b610c06565b82525050565b6000819050919050565b610c4a610c45826107c8565b610c2f565b82525050565b6000610c5c8285610c18565b601482019150610c6c8284610c39565b602082019150819050939250505056fea2646970667358221220c33630b6350a79ae68676993b4948e1125e686b3d0505c58c25cc058f89e514464736f6c634300080f0033",
  "immutableReferences": {},
  "source": "// SPDX-License-Identifier: MIT\r\npragma solidity ^0.8.15;\r\n\r\ncontract Lottery {\r\n    address public owner;\r\n    address payable[] public players;\r\n    address[] public winners;\r\n    uint256 public lotteryId;\r\n\r\n    //Constructor - this runs when the contract is deployed\r\n    constructor() {\r\n        owner = msg.sender;\r\n        lotteryId = 0;\r\n    }\r\n\r\n    // Enter Function\r\n    // msg.sender -> currently logged in user to metamask\r\n    // payable -> inseamna ca apeland aceasta functie cu paybale putem primi bani in contul contractului (fond comun)\r\n    // fara payable nu putem accesa msg.value\r\n    function enter() public payable {\r\n        require(msg.value >= .01 ether);\r\n        players.push(payable(msg.sender));\r\n    }\r\n\r\n    function getBalance() public view returns (uint256) {\r\n        // address(this) -> means this specific contract address\r\n        return address(this).balance;\r\n    }\r\n\r\n    function getPlayers() public view returns (address payable[] memory) {\r\n        return players;\r\n    }\r\n\r\n    function getWinner() public view returns (address[] memory) {\r\n        return winners;\r\n    }\r\n\r\n    function getlotteryId() public view returns (uint256) {\r\n        return lotteryId;\r\n    }\r\n\r\n    function getRandomNumber() public view returns (uint256) {\r\n        return uint256(keccak256(abi.encodePacked(owner, block.timestamp)));\r\n    }\r\n\r\n     function pickWinner() public onlyOwner  {\r\n        // Modulo Operation (%): The modulo operator % is then used on this large number. It divides this number by players.length (the total number of players in the lottery) and returns the remainder of this division.\r\n        // Result - randomIndex: The remainder, which is the result of the modulo operation, is a number between 0 and players.length - 1. This is because the remainder of any division by N (where N is a positive integer) is always less than N. This remainder is stored in uint randomIndex.\r\n        uint randomIndex = getRandomNumber() % players.length;\r\n        players[randomIndex].transfer(address(this).balance);\r\n        winners.push(players[randomIndex]);\r\n        lotteryId++;\r\n\r\n        // Clear the players array. ['player1', 'player2']  []\r\n        players = new address payable[](0);\r\n    }\r\n\r\n    modifier onlyOwner() {\r\n        require(msg.sender == owner);\r\n        _;\r\n    }\r\n}\r\n",
  "sourcePath": "D:\\pet-projects\\------------ WEB3 PROJECTS ---------\\solidity lottery\\backend\\contracts\\Lottery.sol",
  "compiler": {
    "name": "solc",
    "version": "0.8.15+commit.e14f2714.Emscripten.clang"
  },
  "schemaVersion": "3.4.16",
  "updatedAt": "2023-11-26T08:54:28.147Z",
  "networkType": "ethereum",
  "devdoc": {
    "kind": "dev",
    "methods": {},
    "version": 1
  },
  "userdoc": {
    "kind": "user",
    "methods": {},
    "version": 1
  }
}